{
  "contractName": "StoreCustomers",
  "abi": [
    {
      "inputs": [],
      "stateMutability": "nonpayable",
      "type": "constructor"
    },
    {
      "inputs": [],
      "name": "count",
      "outputs": [
        {
          "internalType": "uint32",
          "name": "",
          "type": "uint32"
        }
      ],
      "stateMutability": "view",
      "type": "function"
    },
    {
      "inputs": [
        {
          "internalType": "uint32",
          "name": "",
          "type": "uint32"
        }
      ],
      "name": "customers",
      "outputs": [
        {
          "internalType": "string",
          "name": "name",
          "type": "string"
        },
        {
          "internalType": "uint8",
          "name": "age",
          "type": "uint8"
        }
      ],
      "stateMutability": "view",
      "type": "function"
    },
    {
      "inputs": [],
      "name": "nextId",
      "outputs": [
        {
          "internalType": "uint32",
          "name": "",
          "type": "uint32"
        }
      ],
      "stateMutability": "view",
      "type": "function"
    },
    {
      "inputs": [
        {
          "components": [
            {
              "internalType": "string",
              "name": "name",
              "type": "string"
            },
            {
              "internalType": "uint8",
              "name": "age",
              "type": "uint8"
            }
          ],
          "internalType": "struct StoreCustomers.Customer",
          "name": "customer",
          "type": "tuple"
        }
      ],
      "name": "addCustomer",
      "outputs": [],
      "stateMutability": "nonpayable",
      "type": "function"
    },
    {
      "inputs": [
        {
          "internalType": "uint32",
          "name": "id",
          "type": "uint32"
        }
      ],
      "name": "getCustomer",
      "outputs": [
        {
          "components": [
            {
              "internalType": "string",
              "name": "name",
              "type": "string"
            },
            {
              "internalType": "uint8",
              "name": "age",
              "type": "uint8"
            }
          ],
          "internalType": "struct StoreCustomers.Customer",
          "name": "",
          "type": "tuple"
        }
      ],
      "stateMutability": "view",
      "type": "function"
    },
    {
      "inputs": [],
      "name": "getCount",
      "outputs": [
        {
          "internalType": "uint32",
          "name": "",
          "type": "uint32"
        }
      ],
      "stateMutability": "view",
      "type": "function"
    },
    {
      "inputs": [
        {
          "internalType": "uint32",
          "name": "id",
          "type": "uint32"
        },
        {
          "components": [
            {
              "internalType": "string",
              "name": "name",
              "type": "string"
            },
            {
              "internalType": "uint8",
              "name": "age",
              "type": "uint8"
            }
          ],
          "internalType": "struct StoreCustomers.Customer",
          "name": "newCustomer",
          "type": "tuple"
        }
      ],
      "name": "editCustomer",
      "outputs": [],
      "stateMutability": "nonpayable",
      "type": "function"
    },
    {
      "inputs": [
        {
          "internalType": "uint32",
          "name": "id",
          "type": "uint32"
        }
      ],
      "name": "removeCustomer",
      "outputs": [],
      "stateMutability": "nonpayable",
      "type": "function"
    }
  ],
  "bytecode": "0x60a0604052600180546001600160401b0319169055348015601e575f5ffd5b5033608052608051610ba961003b5f395f6102df0152610ba95ff3fe608060405234801561000f575f5ffd5b5060043610610085575f3560e01c806385ec526d1161005857806385ec526d146100f3578063a87d942c14610113578063cf7a463914610129578063d39e50e11461013c575f5ffd5b806306661abd146100895780630fdd0cde146100bb57806334347690146100d057806361b8ce8c146100e3575b5f5ffd5b6001546100a190640100000000900463ffffffff1681565b60405163ffffffff90911681526020015b60405180910390f35b6100ce6100c93660046108b3565b61015d565b005b6100ce6100de3660046108fe565b6102d4565b6001546100a19063ffffffff1681565b6101066101013660046108fe565b61047a565b6040516100b2919061094c565b600154640100000000900463ffffffff166100a1565b6100ce610137366004610980565b6105b3565b61014f61014a3660046108fe565b61063d565b6040516100b29291906109ba565b63ffffffff82165f908152602081905260408082208151808301909252805482908290610189906109de565b80601f01602080910402602001604051908101604052809291908181526020018280546101b5906109de565b80156102005780601f106101d757610100808354040283529160200191610200565b820191905f5260205f20905b8154815290600101906020018083116101e357829003601f168201915b50505091835250506001919091015460ff166020909101528051519091505f0361022957505050565b8151511580159061024b57508051825180516020918201208251919092012014155b1561025557815181525b5f826020015160ff161180156102795750816020015160ff16816020015160ff1614155b1561028c5760208083015160ff16908201525b63ffffffff83165f908152602081905260409020815182919081906102b19082610a62565b50602091909101516001909101805460ff191660ff909216919091179055505050565b336001600160a01b037f000000000000000000000000000000000000000000000000000000000000000016146103475760405162461bcd60e51b815260206004820152601360248201527221b0b63632b91034b9903737ba1037bbb732b960691b60448201526064015b60405180910390fd5b63ffffffff81165f908152602081905260408082208151808301909252805482908290610373906109de565b80601f016020809104026020016040519081016040528092919081815260200182805461039f906109de565b80156103ea5780601f106103c1576101008083540402835291602001916103ea565b820191905f5260205f20905b8154815290600101906020018083116103cd57829003601f168201915b50505091835250506001919091015460ff16602090910152805151909150156104765763ffffffff82165f9081526020819052604081209061042c828261071b565b506001908101805460ff191690558054640100000000900463ffffffff1690600461045683610b31565b91906101000a81548163ffffffff021916908363ffffffff160217905550505b5050565b60408051808201909152606081525f60208201525f8263ffffffff161180156104af575060015463ffffffff90811690831611155b6104f15760405162461bcd60e51b8152602060048201526013602482015272125b9d985b1a590818dd5cdd1bdb595c881251606a1b604482015260640161033e565b63ffffffff82165f9081526020819052604090819020815180830190925280548290829061051e906109de565b80601f016020809104026020016040519081016040528092919081815260200182805461054a906109de565b80156105955780601f1061056c57610100808354040283529160200191610595565b820191905f5260205f20905b81548152906001019060200180831161057857829003601f168201915b50505091835250506001919091015460ff1660209091015292915050565b805f5f6105be6106e1565b63ffffffff16815260208101919091526040015f20815181906105e19082610a62565b50602091909101516001918201805460ff191660ff9092169190911790558054640100000000900463ffffffff1690600461061b83610b4f565b91906101000a81548163ffffffff021916908363ffffffff1602179055505050565b5f60208190529081526040902080548190610657906109de565b80601f0160208091040260200160405190810160405280929190818152602001828054610683906109de565b80156106ce5780601f106106a5576101008083540402835291602001916106ce565b820191905f5260205f20905b8154815290600101906020018083116106b157829003601f168201915b5050506001909301549192505060ff1682565b600180545f919082906106f99063ffffffff16610b4f565b91906101000a81548163ffffffff021916908363ffffffff1602179055905090565b508054610727906109de565b5f825580601f10610736575050565b601f0160209004905f5260205f20908101906107529190610755565b50565b5b80821115610769575f8155600101610756565b5090565b803563ffffffff81168114610780575f5ffd5b919050565b634e487b7160e01b5f52604160045260245ffd5b6040805190810167ffffffffffffffff811182821017156107bc576107bc610785565b60405290565b604051601f8201601f1916810167ffffffffffffffff811182821017156107eb576107eb610785565b604052919050565b803560ff81168114610780575f5ffd5b5f60408284031215610813575f5ffd5b61081b610799565b9050813567ffffffffffffffff811115610833575f5ffd5b8201601f81018413610843575f5ffd5b803567ffffffffffffffff81111561085d5761085d610785565b610870601f8201601f19166020016107c2565b818152856020838501011115610884575f5ffd5b816020840160208301375f602083830101528084525050506108a8602083016107f3565b602082015292915050565b5f5f604083850312156108c4575f5ffd5b6108cd8361076d565b9150602083013567ffffffffffffffff8111156108e8575f5ffd5b6108f485828601610803565b9150509250929050565b5f6020828403121561090e575f5ffd5b6109178261076d565b9392505050565b5f81518084528060208401602086015e5f602082860101526020601f19601f83011685010191505092915050565b602081525f825160406020840152610967606084018261091e565b905060ff60208501511660408401528091505092915050565b5f60208284031215610990575f5ffd5b813567ffffffffffffffff8111156109a6575f5ffd5b6109b284828501610803565b949350505050565b604081525f6109cc604083018561091e565b905060ff831660208301529392505050565b600181811c908216806109f257607f821691505b602082108103610a1057634e487b7160e01b5f52602260045260245ffd5b50919050565b601f821115610a5d57805f5260205f20601f840160051c81016020851015610a3b5750805b601f840160051c820191505b81811015610a5a575f8155600101610a47565b50505b505050565b815167ffffffffffffffff811115610a7c57610a7c610785565b610a9081610a8a84546109de565b84610a16565b6020601f821160018114610ac2575f8315610aab5750848201515b5f19600385901b1c1916600184901b178455610a5a565b5f84815260208120601f198516915b82811015610af15787850151825560209485019460019092019101610ad1565b5084821015610b0e57868401515f19600387901b60f8161c191681555b50505050600190811b01905550565b634e487b7160e01b5f52601160045260245ffd5b5f63ffffffff821680610b4657610b46610b1d565b5f190192915050565b5f63ffffffff821663ffffffff8103610b6a57610b6a610b1d565b6001019291505056fea264697066735822122024491376e3ac3299b00c1ff69d2ab70a26f5a3464497ff7e3cae74776dc9dabe64736f6c634300081c0033",
  "immutableReferences": {
    "8": [
      {
        "length": 32,
        "start": 735
      }
    ]
  },
  "source": "// SPDX-License-Identifier: MIT\npragma solidity ^0.8.17;\n\ncontract StoreCustomers {\n    struct Customer {\n        string name;\n        uint8 age;\n    }\n\n    address private immutable owner;\n    mapping(uint32 => Customer) public customers;\n    uint32 public nextId = 0;\n    uint32 public count = 0;\n\n    constructor() {\n        owner = msg.sender;\n    }\n\n    function getNextId() private returns (uint32) {\n        return ++nextId;\n    }\n\n    function addCustomer(Customer memory customer) public {\n        customers[getNextId()] = customer;\n        count++;\n    }\n\n    function getCustomer(uint32 id) public view returns (Customer memory) {\n        require(id > 0 && id <= nextId, \"Invalid customer ID\");\n        return customers[id];\n    }\n\n    function getCount() public view returns (uint32) {\n        return count;\n    }\n\n    function compareStrings(\n        string memory a,\n        string memory b\n    ) private pure returns (bool) {\n        return keccak256(bytes(a)) == keccak256(bytes(b));\n    }\n\n    function editCustomer(uint32 id, Customer memory newCustomer) public {\n        Customer memory oldCustomer = customers[id];\n\n        if (bytes(oldCustomer.name).length == 0) return;\n\n        if (\n            bytes(newCustomer.name).length > 0 &&\n            !compareStrings(oldCustomer.name, newCustomer.name)\n        ) oldCustomer.name = newCustomer.name;\n\n        if (newCustomer.age > 0 && oldCustomer.age != newCustomer.age)\n            oldCustomer.age = newCustomer.age;\n\n        customers[id] = oldCustomer;\n    }\n\n    function removeCustomer(uint32 id) public {\n        require(msg.sender == owner, \"Caller is not owner\");\n        Customer memory oldCustomer = customers[id];\n        if (bytes(oldCustomer.name).length > 0) {\n            delete customers[id];\n            count--;\n        }\n    }\n}\n",
  "sourcePath": "/home/mz/blockchain/StoreCustomer/contracts/StoreCustomers.sol",
  "compiler": {
    "name": "solc",
    "version": "0.8.28+commit.7893614a.Emscripten.clang"
  },
  "schemaVersion": "3.4.16",
  "updatedAt": "2025-02-13T23:06:19.067Z",
  "devdoc": {
    "kind": "dev",
    "methods": {},
    "version": 1
  },
  "userdoc": {
    "kind": "user",
    "methods": {},
    "version": 1
  }
}