{
  "contractName": "StoreCustomers",
  "abi": [
    {
      "inputs": [],
      "name": "count",
      "outputs": [
        {
          "internalType": "uint32",
          "name": "",
          "type": "uint32"
        }
      ],
      "stateMutability": "view",
      "type": "function"
    },
    {
      "inputs": [
        {
          "internalType": "uint32",
          "name": "",
          "type": "uint32"
        }
      ],
      "name": "customers",
      "outputs": [
        {
          "internalType": "string",
          "name": "name",
          "type": "string"
        },
        {
          "internalType": "uint8",
          "name": "age",
          "type": "uint8"
        }
      ],
      "stateMutability": "view",
      "type": "function"
    },
    {
      "inputs": [],
      "name": "nextId",
      "outputs": [
        {
          "internalType": "uint32",
          "name": "",
          "type": "uint32"
        }
      ],
      "stateMutability": "view",
      "type": "function"
    },
    {
      "inputs": [
        {
          "components": [
            {
              "internalType": "string",
              "name": "name",
              "type": "string"
            },
            {
              "internalType": "uint8",
              "name": "age",
              "type": "uint8"
            }
          ],
          "internalType": "struct StoreCustomers.Customer",
          "name": "customer",
          "type": "tuple"
        }
      ],
      "name": "addCustomer",
      "outputs": [],
      "stateMutability": "nonpayable",
      "type": "function"
    },
    {
      "inputs": [
        {
          "internalType": "uint32",
          "name": "id",
          "type": "uint32"
        }
      ],
      "name": "getCustomer",
      "outputs": [
        {
          "components": [
            {
              "internalType": "string",
              "name": "name",
              "type": "string"
            },
            {
              "internalType": "uint8",
              "name": "age",
              "type": "uint8"
            }
          ],
          "internalType": "struct StoreCustomers.Customer",
          "name": "",
          "type": "tuple"
        }
      ],
      "stateMutability": "view",
      "type": "function"
    },
    {
      "inputs": [],
      "name": "getCount",
      "outputs": [
        {
          "internalType": "uint32",
          "name": "",
          "type": "uint32"
        }
      ],
      "stateMutability": "view",
      "type": "function"
    }
  ],
  "bytecode": "0x6080604052600180546001600160401b0319169055348015601e575f5ffd5b506107668061002c5f395ff3fe608060405234801561000f575f5ffd5b5060043610610060575f3560e01c806306661abd1461006457806361b8ce8c1461009657806385ec526d146100a6578063a87d942c146100c6578063cf7a4639146100dc578063d39e50e1146100f1575b5f5ffd5b60015461007c90640100000000900463ffffffff1681565b60405163ffffffff90911681526020015b60405180910390f35b60015461007c9063ffffffff1681565b6100b96100b43660046103b7565b610112565b60405161008d919061040f565b600154640100000000900463ffffffff1661007c565b6100ef6100ea3660046104c6565b61024f565b005b6101046100ff3660046103b7565b6102d9565b60405161008d92919061059d565b60408051808201909152606081525f60208201525f8263ffffffff16118015610147575060015463ffffffff90811690831611155b61018d5760405162461bcd60e51b8152602060048201526013602482015272125b9d985b1a590818dd5cdd1bdb595c881251606a1b604482015260640160405180910390fd5b63ffffffff82165f908152602081905260409081902081518083019092528054829082906101ba906105c1565b80601f01602080910402602001604051908101604052809291908181526020018280546101e6906105c1565b80156102315780601f1061020857610100808354040283529160200191610231565b820191905f5260205f20905b81548152906001019060200180831161021457829003601f168201915b50505091835250506001919091015460ff1660209091015292915050565b805f5f61025a61037d565b63ffffffff16815260208101919091526040015f208151819061027d9082610645565b50602091909101516001918201805460ff191660ff9092169190911790558054640100000000900463ffffffff169060046102b783610700565b91906101000a81548163ffffffff021916908363ffffffff1602179055505050565b5f602081905290815260409020805481906102f3906105c1565b80601f016020809104026020016040519081016040528092919081815260200182805461031f906105c1565b801561036a5780601f106103415761010080835404028352916020019161036a565b820191905f5260205f20905b81548152906001019060200180831161034d57829003601f168201915b5050506001909301549192505060ff1682565b600180545f919082906103959063ffffffff16610700565b91906101000a81548163ffffffff021916908363ffffffff1602179055905090565b5f602082840312156103c7575f5ffd5b813563ffffffff811681146103da575f5ffd5b9392505050565b5f81518084528060208401602086015e5f602082860101526020601f19601f83011685010191505092915050565b602081525f82516040602084015261042a60608401826103e1565b905060ff60208501511660408401528091505092915050565b634e487b7160e01b5f52604160045260245ffd5b6040805190810167ffffffffffffffff8111828210171561047a5761047a610443565b60405290565b604051601f8201601f1916810167ffffffffffffffff811182821017156104a9576104a9610443565b604052919050565b803560ff811681146104c1575f5ffd5b919050565b5f602082840312156104d6575f5ffd5b813567ffffffffffffffff8111156104ec575f5ffd5b8201604081850312156104fd575f5ffd5b610505610457565b813567ffffffffffffffff81111561051b575f5ffd5b8201601f8101861361052b575f5ffd5b803567ffffffffffffffff81111561054557610545610443565b610558601f8201601f1916602001610480565b81815287602083850101111561056c575f5ffd5b816020840160208301375f60208383010152808452505050610590602083016104b1565b6020820152949350505050565b604081525f6105af60408301856103e1565b905060ff831660208301529392505050565b600181811c908216806105d557607f821691505b6020821081036105f357634e487b7160e01b5f52602260045260245ffd5b50919050565b601f82111561064057805f5260205f20601f840160051c8101602085101561061e5750805b601f840160051c820191505b8181101561063d575f815560010161062a565b50505b505050565b815167ffffffffffffffff81111561065f5761065f610443565b6106738161066d84546105c1565b846105f9565b6020601f8211600181146106a5575f831561068e5750848201515b5f19600385901b1c1916600184901b17845561063d565b5f84815260208120601f198516915b828110156106d457878501518255602094850194600190920191016106b4565b50848210156106f157868401515f19600387901b60f8161c191681555b50505050600190811b01905550565b5f63ffffffff821663ffffffff810361072757634e487b7160e01b5f52601160045260245ffd5b6001019291505056fea264697066735822122071175a27901448748a639effa9e664b925b35dd570437526d51bea149f491a7064736f6c634300081c0033",
  "immutableReferences": {},
  "source": "// SPDX-License-Identifier: MIT\npragma solidity ^0.8.17;\n\ncontract StoreCustomers {\n    struct Customer {\n        string name;\n        uint8 age;\n    }\n\n    mapping(uint32 => Customer) public customers;\n\n    uint32 public nextId = 0;\n\n    uint32 public count = 0;\n\n    function getNextId() private returns (uint32) {\n        return ++nextId;\n    }\n\n    function addCustomer(Customer memory customer) public {\n        customers[getNextId()] = customer;\n        count++;\n    }\n\n    function getCustomer(uint32 id) public view returns (Customer memory) {\n        require(id > 0 && id <= nextId, \"Invalid customer ID\");\n        return customers[id];\n    }\n\n    function getCount() public view returns (uint32) {\n        return count;\n    }\n}\n",
  "sourcePath": "/home/mz/blockchain/StoreCustomer/contracts/StoreCustomers.sol",
  "compiler": {
    "name": "solc",
    "version": "0.8.28+commit.7893614a.Emscripten.clang"
  },
  "schemaVersion": "3.4.16",
  "updatedAt": "2025-02-13T20:49:45.113Z",
  "devdoc": {
    "kind": "dev",
    "methods": {},
    "version": 1
  },
  "userdoc": {
    "kind": "user",
    "methods": {},
    "version": 1
  }
}